:1000000003C100000C942D0C0C94020C0C94D70B23
:100010000C94AC0B0C94810B0C94560B0C942B0B86
:100020000C94000B22C1000020C100001EC1000082
:100030001CC100001AC1000018C1000016C1000058
:1000400014C1000012C1000010C100000EC1000068
:100050000CC100000AC1000008C100000C94B60ADF
:1000600004C100000C94800A0C94560AFEC00000E3
:10007000FCC00000FAC00000F8C00000F6C000009C
:10008000F4C00000F2C00000F0C00000EEC00000AC
:10009000ECC00000EAC00000E8C000000C94580C5E
:1000A000E4C00000E2C00000E0C00000DEC00000CC
:1000B000DCC00000DAC00000D8C00000D6C00000DC
:1000C000D4C00000D2C00000D0C00000CEC00000EC
:1000D000CCC00000CAC00000C8C00000C6C00000FC
:1000E000C4C0000000002100240027002A002D00C9
:1000F0003000330001010000040107010A01000083
:100100002200250028002B002E00310034000201BF
:100110000000050108010B0100000A0B02090C0D8B
:100120000E080703040100000000000000000000AA
:1001300000000000000000000000000000000000BF
:10014000000000001211100000000000000000007C
:10015000000000000000000000000000000000009F
:1001600020002300260029002C002F00320000016F
:10017000000003010601090105050505070508083A
:100180000808020202020A0A080804040404010121
:100190000101010101010303030303030303040736
:1001A00007070C0C0C0C0C0C0C0C020202020606CD
:1001B0000606060606060B0B0B0B0B0B0B0B0102C0
:1001C0001020200808102040102040800201020169
:1001D0000804020101020408102040808040201021
:1001E000080402018004020180402010080402017A
:1001F00008040201010204081020408001020408E2
:1002000010204080C00D5D1411241FBECFEFD1E23D
:10021000DEBFCDBF00E00CBF16E0A0E0B2E0E8E733
:10022000F2E300E00BBF02C007900D92AC37B107BC
:10023000D9F728E0ACE7B6E001C01D92A934B207B7
:10024000E1F711E0C3E0D1E000E006C02197010929
:10025000802FFE010E940C17C230D10780E00807F2
:10026000A9F70E94F20E0C942B19CACE80917B0044
:10027000877F80937B008091100220E4829FC001E1
:10028000112480937C0080917A00806480937A00AE
:1002900080917A0086FDFCCF809178009091790062
:1002A0000895CF93DF93E2DF880F991FBC01990F68
:1002B000880B990B0E94A614C4E0D8E06E877F8754
:1002C000888B998B2A8D3B8D4C8D5D8D0E940616F7
:1002D0002E893F89488D598D0E94051520E030E018
:1002E0004AE754E40E946B166A8B7B8B8C8B9D8B48
:1002F000DF91CF910895982F2091540781E021320A
:1003000008F043C0809130078111FCCF80915307E2
:1003100032E03093300790932F079FEF90932E0792
:1003200010922D0720932C07A3E3B7E0ECE0F7E051
:1003300090E0291331C010920B0790910B07880FA2
:10034000892B80930B0780910A07813049F5109221
:100350000A0780910B078093BB008091BC0083FD4E
:10036000F8CF85EC8093BC00809130078230E1F3B8
:1003700080912E078F3FB1F080912E078032A1F03F
:1003800080912E07803391F084E010923207109212
:1003900054071092310708953D9131939F5FC9CF63
:1003A00085EEE0CF80E0F1CF82E0EFCF83E0EDCFCC
:1003B0008230910538F0880F991F880F991F059793
:1003C0000197F1F7089508950895AF92BF92CF92E3
:1003D000DF92EF92FF920F931F93CF93DF936C0105
:1003E0007B018B01040F151FEB015E01AE18BF08E6
:1003F000C017D10759F06991D601ED91FC91019098
:10040000F081E02DC6011995892B79F7C501DF919F
:10041000CF911F910F91FF90EF90DF90CF90BF9001
:10042000AF900895FC01538D448D252F30E0842F2B
:1004300090E0821B930B541710F0CF96089501970C
:100440000895FC01918D828D981761F0A28DAE0FF9
:10045000BF2FB11D5D968C91928D9F5F9F73928F80
:1004600090E008958FEF9FEF0895FC01918D828DAC
:10047000981731F0828DE80FF11D858D90E0089579
:100480008FEF9FEF0895FC01918D228D892F90E0D1
:10049000805C9F4F821B91098F739927089585E592
:1004A00097E0F1DF21E0892B09F420E0822F089505
:1004B000FC01A48DA80FB92FB11DA35ABF4F2C91D9
:1004C000848D90E001968F739927848FA689B789D0
:1004D0002C93A089B1898C91837080648C93938DC7
:1004E000848D981306C00288F389E02D80818F7D6A
:1004F00080830895EF92FF920F931F93CF93DF9322
:10050000EC0181E0888F9B8D8C8D98131AC0E8894F
:10051000F989808185FF15C09FB7F894EE89FF891E
:100520006083E889F98980818370806480839FBFBC
:1005300081E090E0DF91CF911F910F91FF90EF90BC
:100540000895F62E0B8D10E00F5F1F4F0F731127CC
:10055000E02E8C8D8E110BC00FB607FCFACFE88908
:10056000F989808185FFF5CFCE01A2DFF2CFEB8D37
:10057000EC0FFD2FF11DE35AFF4FF0829FB7F89467
:100580000B8FEA89FB8980818062D0CFCF93DF9384
:10059000EC01888D8823B1F0AA89BB89E889F989A3
:1005A0008C9185FD03C0808186FD0CC00FB607FCD1
:1005B000F7CF8C9185FFF2CF808185FFEDCFCE0103
:1005C00077DFEACFDF91CF91089580E090E0892B2B
:1005D00021F065DF81110E94000080E090E0892B0E
:1005E00049F080E090E0892B29F00E940000811101
:1005F0000E94000080E090E0892B49F080E090E0CC
:10060000892B29F00E94000081110E94000080E0E7
:1006100090E0892B49F080E090E0892B29F00E943E
:10062000000081110C94000008958150823108F07F
:100630005AC0E82FF0E08827EF5DFC4F8F4F0C94F5
:100640000C1741034503330339033D037303480388
:100650004E03520358035C03600366036A0373038B
:100660006E0374037803809180008F7780938000FD
:100670000895809180008F7DF9CF80918000877FE1
:10068000F5CF84B58F7784BD089584B58F7DFBCF7A
:100690008091B0008F778093B00008958091B00072
:1006A0008F7DF9CF809190008F778093900008958F
:1006B000809190008F7DF9CF80919000877FF5CF5A
:1006C0008091A0008F778093A00008958091A00072
:1006D0008F7DF9CF8091A000877FF5CF8091200199
:1006E0008F77809320010895809120018F7DF9CF2D
:1006F00080912001877FF5CFCF93DF93282F30E0C3
:10070000F901E85EFE4F8491F901E254FE4FD49165
:10071000F901E858FE4FC491CC2399F0811185DF8F
:10072000EC2FF0E0EE0FFF1FE25AFE4FA591B491BF
:10073000EC91ED2381E090E009F480E0DF91CF912E
:10074000089580E090E0FACF1F93CF93DF93282F96
:1007500030E0F901E85EFE4F8491F901E254FE4F6A
:10076000D491F901E858FE4FC491CC23A1F0162F83
:1007700081115BDFEC2FF0E0EE0FFF1FE250FF4F27
:10078000A591B4918FB7F894EC91111108C0D09550
:10079000DE23DC938FBFDF91CF911F910895DE2B75
:1007A000F8CFCF92DF92EF92FF926B017C016091C4
:1007B00008088CE0C9DF75DD609322087093230878
:1007C000809324089093250860E08EE0BDDFA701A8
:1007D00096016091220870912308809124089091DD
:1007E00025080E94A01461E087FF14C08DE0ACDFF3
:1007F0008091100890911108DBDD60E08DE0A4DFAE
:1008000050DD60932208709323088093240890930E
:100810002508DDCF8EE098DFFF90EF90DF90CF903E
:100820000895EF92FF920F931F93CF93DF937C0174
:1008300080910A0890910B088617970799F52091E7
:100840000C0830910D082130310509F073C0682F74
:100850008CE07ADF60E08EE077DFD0E0C0E0CE159C
:10086000DF05BCF421960AE010E061E08DE06CDF6A
:1008700080911008909111089BDD60E08DE064DFAD
:10088000809110089091110893DD0150110969F7CA
:10089000E6CF61E08EE0DF91CF911F910F91FF9045
:1008A000EF9052CF80910808909109086817790756
:1008B00009F040C080910E0890910F08019709F04F
:1008C00039C08CE041DF60E08EE03EDFD0E0C0E088
:1008D000CE15DF05F4F6209104083091050840910B
:1008E00006085091070860912A0870912B088091A2
:1008F0002C0890912D080E94A01487FFCACF219642
:100900000AE010E061E08DE01FDF80911008909117
:1009100011084EDD60E08DE017DFC3DC60932A082C
:1009200070932B0880932C0890932D080150110987
:1009300049F7CECFDF91CF911F910F91FF90EF90AC
:100940000895CF93DF9390E0FC01E254FE4F249191
:1009500088589E4FFC0184918823D1F090E0880F45
:10096000991FFC01EC51FF4FA591B491FC01E2509D
:10097000FF4FC591D49161110EC09FB7F8948C912F
:10098000E22FE0958E238C932881E223E8839FBF9A
:10099000DF91CF9108958FB7F894EC91E22BEC930F
:1009A0008FBFF6CF3FB7F8948091C5069091C606E9
:1009B000A091C706B091C80626B5A89B05C02F3FD9
:1009C00019F00196A11DB11D3FBFBA2FA92F982F75
:1009D0008827BC01CD01620F711D811D911D42E070
:1009E000660F771F881F991F4A95D1F708958F9238
:1009F0009F92AF92BF92CF92DF92EF92FF924B0104
:100A00005C01D0DF6B017C01CDDF6C197D098E09A3
:100A10009F09683E734081059105B0F321E0821A79
:100A20009108A108B10888EEC80E83E0D81EE11C29
:100A3000F11C81149104A104B10431F7FF90EF90EF
:100A4000DF90CF90BF90AF909F908F9008950895C2
:100A5000DC01ED91FC910190F081E02D1994FF9261
:100A60000F931F93CF93DF93F82E192F062FC6E312
:100A7000D8E0888199812A8131E030933107209331
:100A800053071092320710925407612F70E0E0DF95
:100A90006F2D712F88819981DBDF88819981DC013D
:100AA000ED91FC910190F081E02D602F199581E08E
:100AB000DF91CF911F910F91FF901DCC85ED809319
:100AC000BC008091BC0084FDFCCF109230070895DB
:100AD0002091A106260F3327331F21323105ECF474
:100AE00020913007FC0190E080E0243069F082E042
:100AF0000895A091A1062191AC014F57594FA40F21
:100B0000B52FB11D2C930196861798F38091A106FD
:100B1000680F6093A10680E0089581E0089508952C
:100B2000E091E9068091E806E81730F4F0E0E6513C
:100B3000F94F808190E008958FEF9FEF0895909195
:100B4000E9068091E8062FEF3FEF981748F4E92F68
:100B5000F0E0E651F94F208130E09F5F9093E90685
:100B6000C90108958091E8069091E906891B990BC7
:100B70000895CF92DF92EF92FF920F931F93CF933E
:100B8000DF937C01CB018A0120913107222389F078
:100B9000EB016B01C40ED51ECC15DD0561F069912A
:100BA000D701ED91FC910190F081E02DC7011995DD
:100BB000F3CF642F8DDFC801DF91CF911F910F918B
:100BC000FF90EF90DF90CF900895CF93DF931F9227
:100BD000CDB7DEB76983209131072223F9F0209148
:100BE0005407203258F021E030E0FC0133832283A7
:100BF00090E080E00F90DF91CF91089580913207CF
:100C0000E82FF0E0ED5CF84F998190838F5F80933F
:100C100032078093540781E090E0ECCF61E0CE0191
:100C2000019656DFF8CF90E080E0089560E0809173
:100C300043088ADD60E080913D0886CD91E0909385
:100C4000310790E7909353071092320710925407A0
:100C500061E070E001C0660F8A95EAF782EF97E0E5
:100C6000B4DF81E048CB2FB7F8948091CD06909106
:100C7000CE06A091CF06B091D0062FBF4091D106ED
:100C80005091D2066091D3067091D406841B950BC7
:100C9000A60BB70B8093DF069093E006A093E106C6
:100CA000B093E2062FB7F8948091CD069091CE06CE
:100CB000A091CF06B091D0062FBF8093D10690931C
:100CC000D206A093D306B093D4060895AF92BF92F4
:100CD000CF92DF92EF92FF920F931F93CF93DF9308
:100CE0007C015A012FEF30E0DB010E94141724E64B
:100CF00030E040E050E00E94B915E9016901F701D8
:100D00000481158161E0802F1CDE209721F460E0D2
:100D1000802F1ADD2BC0CF3FD10511F461E0F8CF51
:100D2000F801FF27E85EFE4FE491E150E23108F060
:100D3000C5C0F0E08827E056F94F8F4F0C940C1790
:100D4000B206CC06D106DB06E5065E07EF06F7061F
:100D5000FF06090713071D072C0736075E07400724
:100D60004A07540784B5806884BDC7BDA114B10487
:100D700009F0AAC060E0F7018081E6DC61E0F701DC
:100D80008281DF91CF911F910F91FF90EF90DF90C3
:100D9000CF90BF90AF90D8CC84B5806284BDC8BDE1
:100DA000E5CF80918000806880938000D093890097
:100DB000C0938800DBCF80918000806280938000A8
:100DC000D0938B00C0938A00D1CF8091800088603F
:100DD00080938000D0938D00C0938C00C7CF80910A
:100DE000B00080688093B000C093B300BFCF809103
:100DF000B00080628093B000C093B400B7CF809100
:100E00009000806880939000D0939900C0939800E0
:100E1000ADCF80919000806280939000D0939B0032
:100E2000C0939A00A3CF8091900088608093900037
:100E3000D0939D00C0939C0099CF8091A0008068C2
:100E40008093A0008091A0008F7B8093A000D0931E
:100E5000A900C093A8008ACF8091A00080628093EF
:100E6000A000D093AB00C093AA0080CF8091A000D7
:100E700088608093A000D093AD00C093AC0076CF83
:100E800080912001806880932001D0932901C09334
:100E900028016CCF80912001806280932001D09343
:100EA0002B01C0932A0162CF80912001886080933A
:100EB0002001D0932D01C0932C0158CF80E8C81693
:100EC000D1040CF02BCF23CFAA94AB2831F461E0EE
:100ED000F701808139DC60E052CFDF91CF911F9123
:100EE0000F91FF90EF90DF90CF90BF90AF9008955B
:100EF000AB01BC0189E398E0E9CEAB01BC018FE313
:100F000098E0E4CECF93DF93EC0180913608909186
:100F100037082091380831E0309331072093530788
:100F2000109232071092540770E060E091DDBE012C
:100F300080913608909137088BDD81E0DCD9809173
:100F40003808909130079111FCCF91E090933007D1
:100F500090932F072FEF20932E0710922D071092BA
:100F60002C0790930B0790910B07880F892B809388
:100F70000B0780910A07813089F510920A0780914A
:100F80000B078093BB008091BC0083FDF8CF85ECFC
:100F90008093BC00809130078130E1F380912D0770
:100FA00091E0811102C090912D07ACE0B7E0EAEE2C
:100FB000F6E080E0891314C01092E9068093E806F9
:100FC0008091360890913708DC01ED91FC91028404
:100FD000F385E02D1995DF91CF91089585EED8CF57
:100FE0002D9121938F5FE6CFEF92FF920F931F9386
:100FF000CF93DF9305ED16E0C0E0EE24E394F12CEF
:101000008C2F1CDE8DE490E07DDF80FFFBCF61E064
:1010100088E190E024DD8FE490E074DF82FFFBCF75
:1010200082E690E06FDFD82F67E085E190E017DD82
:10103000F801D33370F4F182E082CF5F0E5F1F4F6F
:10104000C530F1F6DF91CF911F910F91FF90EF9096
:10105000089511821082F1CFFC0101900020E9F780
:101060003197AF01481B590BBC0185E597E0ADC92D
:101070008F929F92AF92BF920F931F93CF93DF9364
:10108000CDB7DEB7A1970FB6F894DEBF0FBECDBFC8
:1010900019A2423008F44AE08E010F5D1F4F842EE2
:1010A000912CB12CA12CA50194010E94D515E62FFD
:1010B000B901CA01EA30ECF4E05DD801EE938D018C
:1010C000232B242B252B79F790E080E0109711F04B
:1010D000CD01C2DFA1960FB6F894DEBF0FBECDBF23
:1010E000DF91CF911F910F91BF90AF909F908F9004
:1010F0000895E95CE2CFCF92DF92EF92FF92CF9317
:10110000DF9397FF19C06B017C016DE285E597E0E5
:10111000F1D9EC0166277727CB016C197D098E097F
:101120009F094AE0A5DF8C0F9D1FDF91CF91FF90B3
:10113000EF90DF90CF9008954AE0DF91CF91FF903C
:10114000EF90DF90CF9094CFCF93DF9385DFEC01CA
:101150008BE392E081DF8C0F9D1FDF91CF9108958B
:10116000CF93DF93BC01990F880B990BC4DFEC017F
:101170008BE392E071DF8C0F9D1FDF91CF9108957B
:101180004F925F926F927F928F929F92AF92BF9297
:10119000CF92DF92EF92FF920F931F93CF936B0149
:1011A0007C01742EAC019B010E940817882391F0EA
:1011B0008EE392E0CF911F910F91FF90EF90DF901F
:1011C000CF90BF90AF909F908F907F906F905F90E7
:1011D0004F9042CF46015701E894B7F82FEF3FEF09
:1011E0004FE75FE7C501B4010E94081781110DC0E8
:1011F0002FEF3FEF4FE75FE7C501B4010E94A01456
:1012000018161CF482E492E0D5CF2FEF3FEF4FE7A2
:101210005FE4C701B6010E94041718161CF486E4A7
:1012200092E0C8CF2FEF3FEF4FE75FECC701B60169
:101230000E94A01487FDF3CF20E030E0A901C70190
:10124000B6010E94A01410E000E087FF09C06DE223
:1012500085E597E04FD98C01F7FAF094F7F8F09410
:10126000C0E060E070E080E09FE37C1641F020E0A9
:1012700030E040E251E40E946B16CF5FF6CFA70149
:1012800096010E9407162B013C010E94D8164B01C3
:101290005C014AE0EDDE7C01E00EF11ECC23B1F1F1
:1012A000C501B4010E94A4149B01AC01C301B201A9
:1012B0000E9406164B015C016EE285E597E01AD9A3
:1012C000E80EF91EC15010F120E030E040E251E498
:1012D000C501B4010E9405152B013C010E94D816DE
:1012E0004B01B12CA12C4AE0C501B401C1DEE80ECE
:1012F000F91EC501B4010E94A4149B01AC01C301F5
:10130000B2010E9406164B015C01DCCFC701CF91F0
:101310001F910F91FF90EF90DF90CF90BF90AF9013
:101320009F908F907F906F905F904F90089586E28E
:10133000E3D9019771F46091DF067091E006809126
:10134000E1069091E2064AE093DE8BE392E084DED0
:10135000EECF6CCC82E0D0D9892B79F481E090E09B
:101360009093E7068093E60661E08EE0EDD9109257
:101370000D0810920C085ADCDACF1092E706109292
:10138000E60681E090E090930D0880930C080895A4
:10139000CF93DF93EC018091FE079091FF070097B8
:1013A00059F020910008309101082C173D0720F0DA
:1013B00081E0DF91CF910895BE016F5F7F4F0E9462
:1013C0003F18009789F09093FF078093FE07D09312
:1013D0000108C09300082091020830910308232BD4
:1013E00039F7FC011082E4CF80E0E3CF90E080E0A9
:1013F000CFDF2091FE073091FF07811113C0211527
:10140000310519F0C9010E94B6171092FF0710921A
:10141000FE07109203081092020810920108109221
:101420000008089510920308109202086DE372E01C
:10143000C9010C9424190F931F93CF93DF931F922C
:101440001F92CDB7DEB789831A82009102081091EE
:1014500003080F5F1F4FC8019BDF8823A1F0209175
:10146000FE073091FF078091020890910308BE01AA
:101470006F5F7F4F820F931F0E9424191093030800
:101480000093020881E00F900F90DF91CF911F91A0
:101490000F9108958091FE079091FF07009711F03A
:1014A0000C94651460E070E0CB0108951F920F92D8
:1014B0000FB60F9211240BB60F922F933F934F93B9
:1014C0005F936F937F938F939F93AF93BF93EF93AC
:1014D000FF9385E597E00E945802FF91EF91BF913D
:1014E000AF919F918F917F916F915F914F913F91BC
:1014F0002F910F900BBE0F900FBE0F901F9018955D
:101500001F920F920FB60F9211240BB60F922F93CA
:101510008F939F93EF93FF93E0916507F091660798
:101520008081E0916B07F0916C0782FD1DC0908176
:1015300080916E078F5F8F7320916F07821741F044
:10154000E0916E07F0E0EB5AF84F958F80936E07AD
:10155000FF91EF919F918F912F910F900BBE0F9064
:101560000FBE0F901F9018958081F2CF1F920F929F
:101570000FB60F9211242F933F938F939F93AF93A6
:10158000BF938091CD069091CE06A091CF06B091E9
:10159000D0063091C40623E0230F2D3758F501966D
:1015A000A11DB11D2093C4068093CD069093CE0655
:1015B000A093CF06B093D0068091C5069091C60641
:1015C000A091C706B091C8060196A11DB11D8093D8
:1015D000C5069093C606A093C706B093C806BF91F0
:1015E000AF919F918F913F912F910F900FBE0F90D0
:1015F0001F90189526E8230F0296A11DB11DD2CF8A
:101600001F920F920FB60F9211240BB60F922F93C9
:101610003F934F935F936F937F938F939F93AF937A
:10162000BF93EF93FF93E0910E02F0910F02199593
:10163000FF91EF91BF91AF919F918F917F916F91AA
:101640005F914F913F912F910F900BBE0F900FBE66
:101650000F901F9018951F920F920FB60F921124A2
:101660000BB60F922F933F934F935F936F937F939C
:101670008F939F93AF93BF93EF93FF93E0910C02EF
:10168000F0910D021995FF91EF91BF91AF919F914C
:101690008F917F916F915F914F913F912F910F901B
:1016A0000BBE0F900FBE0F901F9018951F920F92B8
:1016B0000FB60F9211240BB60F922F933F934F93B7
:1016C0005F936F937F938F939F93AF93BF93EF93AA
:1016D000FF93E0910202F09103021995FF91EF91BF
:1016E000BF91AF919F918F917F916F915F914F913A
:1016F0003F912F910F900BBE0F900FBE0F901F9038
:1017000018951F920F920FB60F9211240BB60F92DD
:101710002F933F934F935F936F937F938F939F93F9
:10172000AF93BF93EF93FF93E0910002F09101021A
:101730001995FF91EF91BF91AF919F918F917F91FB
:101740006F915F914F913F912F910F900BBE0F9032
:101750000FBE0F901F9018951F920F920FB60F9209
:1017600011240BB60F922F933F934F935F936F9378
:101770007F938F939F93AF93BF93EF93FF93E091EA
:101780000A02F0910B021995FF91EF91BF91AF9171
:101790009F918F917F916F915F914F913F912F9189
:1017A0000F900BBE0F900FBE0F901F9018951F92B9
:1017B0000F920FB60F9211240BB60F922F933F93F7
:1017C0004F935F936F937F938F939F93AF93BF9349
:1017D000EF93FF93E0910802F09109021995FF91B0
:1017E000EF91BF91AF919F918F917F916F915F9199
:1017F0004F913F912F910F900BBE0F900FBE0F9006
:101800001F9018951F920F920FB60F9211240BB6CE
:101810000F922F933F934F935F936F937F938F9389
:101820009F93AF93BF93EF93FF93E0910602F091E4
:1018300007021995FF91EF91BF91AF919F918F9101
:101840007F916F915F914F913F912F910F900BBEC0
:101850000F900FBE0F901F9018951F920F920FB60A
:101860000F9211240BB60F922F933F934F935F93D8
:101870006F937F938F939F93AF93BF93EF93FF9358
:10188000E0910402F09105021995FF91EF91BF914B
:10189000AF919F918F917F916F915F914F913F9108
:1018A0002F910F900BBE0F900FBE0F901F901895A9
:1018B0001F920F920FB60F9211240BB60F922F9317
:1018C0003F934F935F936F937F938F939F93AF93C8
:1018D000BF93EF93FF938091B900887F803609F41E
:1018E0004CC008F03FC0883209F4A8C028F5803108
:1018F00009F49CC0C8F4882309F4FAC0883009F4BC
:1019000095C0FF91EF91BF91AF919F918F917F9182
:101910006F915F914F913F912F910F900BBE0F9060
:101920000FBE0F901F901895883109F487C0803240
:1019300041F780932E0714C0803409F49CC040F412
:101940008033B9F38833E9F680932E0785ECAFC076
:10195000803509F484C0883509F495C0883489F647
:10196000ADD8CFCF883909F48CC038F5883729F045
:1019700050F4883611F0803721F683E080933007E9
:101980001092C30657C0883809F47BC0803919F01B
:10199000803809F0B6CF8091C306803208F071C05C
:1019A000E091C30681E08E0F8093C3068091BB0057
:1019B000F0E0ED55F94F80833DC0803B39F0E0F415
:1019C000803A09F479C0883A09F09BCF84E080938B
:1019D00030071092A2061092A106E091CB06F0917A
:1019E000CC0619958091A10681110FC081E08093EA
:1019F000A1061092810609C0803C09F4A7CF883C5B
:101A000009F4A4CF883B09F07CCFE091A20681E0E5
:101A10008E0F8093A206F0E0EF57F94F80818093FC
:101A2000BB009091A2068091A10629C080910B076E
:101A30008093BB0085EC8093BC0063CF90912D0711
:101A400080912C07981758F5E0912D0781E08E0FB3
:101A500080932D07F0E0E45FF84F8081E9CFE091BB
:101A60002D0781E08E0F80932D078091BB00F0E061
:101A7000E45FF84F808390912D0780912C07981791
:101A8000C8F285E8D8CFE0912D0781E08E0F8093D2
:101A90002D078091BB00F0E0E45FF84F80838091D8
:101AA0002F0781115DCF81E080930A0784EA80933C
:101AB000BC001092300725CF85EC8093BC001092BB
:101AC00030078091C306803230F4E091C306F0E025
:101AD000ED55F94F10826091C30670E0E091C906A0
:101AE000F091CA0683EA96E019951092C30609CFD1
:101AF00010922E0735CFCF92DF92EF92FF920F9385
:101B00001F93E82FF92F05C0015011092109310950
:101B100061F1908196239417B9F305C00150110922
:101B20002109310911F1908196239413F7CFC12C2B
:101B3000D12CE12CF12C0AC08FEFC81AD80AE80A80
:101B4000F80A0C151D052E053F0579F080818623C6
:101B5000841791F36C2D7D2D8E2D9F2D1F910F914C
:101B6000FF90EF90DF90CF90089560E070E080E00C
:101B700090E01F910F91FF90EF90DF90CF9008952C
:101B8000109258071092570788EE93E0A0E0B0E05B
:101B90008093590790935A07A0935B07B0935C0713
:101BA0002BE132E0309356072093550725EC30E0C7
:101BB000309362072093610724EC30E03093640790
:101BC0002093630720EC30E030936607209365078D
:101BD00021EC30E0309368072093670722EC30E077
:101BE00030936A072093690726EC30E030936C0746
:101BF00020936B0710926E0710926F071092700778
:101C0000109271071092F5071092F4078093F6076F
:101C10009093F707A093F807B093F9078DE292E04D
:101C20009093F3078093F2078EE290E0909344083C
:101C3000809343088FE290E09093400880933F08A0
:101C400080E390E0909342088093410861E08EE247
:101C50000E94A10461E080913F080E94A10461E01C
:101C6000809141080E94A1048DE290E090933E088B
:101C700080933D088AE290E090933A088093390877
:101C80008BE290E090933C0880933B0861E08DE20A
:101C90000E94A10461E0809139080E94A10461E0E2
:101CA00080913B080E94A10489E28093380884E671
:101CB00090E090933108809330081092330810928E
:101CC000320881E090E090933508809334084CEE20
:101CD00051E560EA70E4409304085093050860936E
:101CE000060870930708109209081092080890934C
:101CF0000B0880930A0890930D0880930C0890932A
:101D00000F0880930E0889E190E09093110880936A
:101D100010088AE999E9A9EAB1E480931A08909336
:101D20001B08A0931C08B0931D0881EE9AE7ADEC48
:101D3000B2E480931E0890931F08A0932008B093EC
:101D4000210860E086E30E94A1048AE097EDA3E207
:101D5000BCE38093260890932708A0932808B093AB
:101D6000290861E08DE00E94A10461E08CE00E94FE
:101D7000A10461E08EE00E94A10461E08EE00E9477
:101D8000A4031092FF071092FE0710920108109210
:101D90000008109203081092020890E080E0F8DA40
:101DA0002091FE073091FF07811113C021153105E5
:101DB00019F0C9010E94B6171092FF071092FE0792
:101DC0001092030810920208109201081092000865
:101DD000089510920308109202086DE372E0C901A1
:101DE0000C942419789484B5826084BD84B5816094
:101DF00084BD85B5826085BD85B5816085BD8091D6
:101E00006E00816080936E0010928100809181004D
:101E10008260809381008091810081608093810045
:101E2000809180008160809380008091B100846007
:101E30008093B1008091B00081608093B000809168
:101E400091008260809391008091910081608093E5
:101E50009100809190008160809390008091A1001A
:101E600082608093A1008091A10081608093A10095
:101E70008091A00081608093A00080912101826008
:101E800080932101809121018160809321018091C3
:101E9000200181608093200180917A00846080938A
:101EA0007A0080917A00826080937A0080917A0033
:101EB000816080937A0080917A00806880937A00B4
:101EC0001092C100E0916507F091660782E080837F
:101ED000E0916107F09162071082E0916307F09151
:101EE00064078FEC808310926D07E0916907F09191
:101EF0006A0786E08083E0916707F0916807808138
:101F000080618083E0916707F09168078081886035
:101F10008083E0916707F091680780818068808303
:101F2000E0916707F091680780818F7D8083109230
:101F3000100260E086E20E94A10460E082E00E945C
:101F4000A10460E083E00E94A1048AEA99E09093F2
:101F500001028093000280916A008C7F81608093EF
:101F60006A00EC9A60E082E10E94A10483E396E0BB
:101F700090930B0280930A0280916900806C809399
:101F80006900EB9A8AE492E0DFD889E692E0DCD837
:101F900087E992E0D9D885EB92E0D6D887ED92E038
:101FA000D3D88AEF92E0D0D88DE193E0CDD880E409
:101FB00093E0CAD88BE593E0C7D880E893E0C4D813
:101FC00085EA93E0C1D881EC93E0BED888EE93E037
:101FD000BBD880E194E0B8D888E394E0B5D88FE529
:101FE00094E0B2D887E894E0AFD885EA94E0ACD822
:101FF0008BEE94E0A9D884E295E0A6D889E595E037
:10200000A3D887E695E0A0D88DE995E09DD886EC29
:1020100095E09AD88CED95E097D861E08AE00E942F
:10202000A10460E089E00E94A104812C912C54015C
:1020300002EF17E07724739468E4662E75E4572E58
:10204000E3EEEE2EE1E0FE2EF4EECF2EF1E0DF2EF9
:10205000882D0E941E0610933708009336081092B0
:10206000E9061092E8061092320710925407109277
:10207000300770922F0710920A0761E084E10E94F6
:10208000A40361E085E10E94A4038091B9008E7FE2
:102090008093B9008091B9008D7F8093B9006092E0
:1020A000B8005092BC00F092CC06E092CB06D092E1
:1020B000CA06C092C90690E080E00E948207843B75
:1020C00009F45DC081EF95E00E942C08C40148D856
:1020D00086E696E00E942C08C501B4010CD888E081
:1020E00096E032D88FEF881A980AA80AB80AE5E075
:1020F0008E169104A104B10409F0AACF2FB7F89469
:102100008091CD069091CE06A091CF06B091D006D9
:102110002FBF8093D1069093D206A093D306B0939D
:10212000D4068091E6069091E706019719F480E1C4
:1021300096E00AD88091E4069091E506019719F49B
:1021400088E296E001D885E597E00E9443021816E0
:10215000190634F485E597E00E9421028093E30696
:102160008091E306833609F0D3C060E070E0CB01D4
:102170000E94D1031092E3060E94E502D2CF61E0F3
:1021800087E092E00E942F0561E088E092E00E94E3
:102190002F0560E086E990E00E942F056DEF87E94A
:1021A00090E00E942F0560E083EE90E00E942F05F2
:1021B00064E084EE90E00E942F0562E085EE90E0FE
:1021C0000E942F0561E086EE90E00E942F0563E0FB
:1021D00087EE90E00E942F0562E085EF90E00E947C
:1021E0002F0565E089ED90E00E942F056EEC8BEDE8
:1021F00090E00E942F0563E08CED90E00E942F0597
:1022000068EF8DED90E00E942F0560E08FE990E08F
:102210000E942F056CE383EA90E00E942F0560E0A6
:1022200087EB90E00E942F056CE38BEB90E00E941F
:102230002F0569E082EB90E00E942F0569E08AECAF
:1022400090E00E942F0561E088E991E00E942F054F
:1022500067E180EB91E00E942F0560E08DEA91E05C
:102260000E942F0565E08FEF90E00E942F0565E04A
:1022700080E091E00E942F0565E089E991E00E94ED
:102280002F056BE186EA91E00E942F056EE38CEA50
:1022900091E00E942F056FE187EA91E00E942F05EF
:1022A00060E080E390E00E942F0560E181E190E032
:1022B0000E942F0560E38AE091E00E942F0566E40A
:1022C0008FE390E00E942F056FEF81E390E00E9482
:1022D0002F0563E680E490E00E942F0561E08EE226
:1022E00090E00E942F0569E08BE190E00E942F05AD
:1022F00061E38EE390E00E942F0564E284E190E0C8
:102300000E942F0560E086E190E00E942F05E0CE5C
:102310008C36A9F4409134085091350864E670E099
:102320008FE398E00E94660640913208509133088E
:1023300064E670E089E398E00E9466061BCF83376D
:1023400059F450E040E064E670E08FE398E00E94CA
:10235000660650E040E0ECCF8836A1F580910C088D
:1023600090910D08019709F005CF60E08EE00E9482
:10237000A40360910A088CE00E94A403C03DF7E02A
:10238000DF07DCF421960AE010E061E08DE00E94B6
:10239000A40380911008909111080E94D80160E078
:1023A0008DE00E94A40380911008909111080E9472
:1023B000D8010150110949F7E1CF61E08EE00E9498
:1023C000A403D8CE8A3729F581E496E00E94A408B8
:1023D00085E597E00E944302892BD1F385E597E0DC
:1023E0000E944302892B61F085E597E00E9421025B
:1023F00022D86AE070E080E090E00E94F704EECF1F
:1024000049D8CB0170E060E00E947D070E94F60988
:10241000B1CE8837F1F485E597E00E944302892B1D
:10242000D1F385E597E00E944302892B69F085E5A9
:1024300097E00E9421020E941B0A6AE070E080E09F
:1024400090E00E94F704EDCF25D8CB0161E070E069
:10245000DBCF8C3201F585E597E00E944302892BA2
:10246000D1F385E597E00E944302892B69F085E569
:1024700097E00E9421020E941B0A6AE070E080E05F
:1024800090E00E94F704EDCF05D8CB0170E060E04A
:102490000E947807BBCF8F32F9F485E597E00E9460
:1024A0004302892BD1F385E597E00E944302892BF3
:1024B00069F085E597E00E9421020E941B0A6AE00C
:1024C00070E080E090E00E94F704EDCF0E944A0A9D
:1024D000CB0161E070E0DCCF8B3509F585E597E055
:1024E0000E944302892BD1F385E597E00E944302C5
:1024F000892B69F085E597E00E9421020E941B0A62
:102500006AE070E080E090E00E94F704EDCF0E9466
:102510004A0ACB0170E060E00E94110477CF8D354C
:10252000F9F485E597E00E944302892BD1F385E514
:1025300097E00E944302892B69F085E597E00E94AD
:1025400021020E941B0A6AE070E080E090E00E9495
:10255000F704EDCF0E944A0ACB0161E070E0DCCFC6
:102560008C3409F044C00E943601BC01990F880BDD
:10257000990BECD12AE137E64CE150E446D2609366
:10258000120870931308809314089093150842E082
:102590000E94C0088BE392E00E942C0885E597E03A
:1025A0000E944302892B99F085E597E00E9443023F
:1025B000892B69F085E597E00E9421020E941B0AA1
:1025C0006AE070E080E090E00E94F704EDCF0E94A6
:1025D0004A0ACB0170E060E00E9411040E94F609F3
:1025E00062E370E080E090E00E94F704BCCF8435A5
:1025F00011F58091DF069091E006A091E106B0917F
:10260000E206892B8A2B8B2BA1F36091DF06709158
:10261000E0068091E1069091E2064AE00E943808C7
:102620008BE392E00E942C0864E670E080E090E08A
:102630000E94F704DECF803509F062C06DEC7CECBF
:102640008CEC9DE30E94D1034091340850913508F1
:1026500064E670E08FE398E00E94660640913208DD
:102660005091330864E670E089E398E00E946606C2
:1026700068EE73E080E090E00E94F7040E94970902
:1026800060ED77E080E090E00E94F70461E070E0A8
:102690008EE591E00E94110461E070E084E690E034
:1026A0000E94780761E070E084E690E00E947D0778
:1026B0000E94F40705ED16E053E0C52ED12CE12C65
:1026C000F12C85E696E00E942C08C701B6010E9415
:1026D0007B088FE396E00E942C08F80186819781A1
:1026E0000E94B008F1E0CF1AD108E108F1080250C9
:1026F00011098FEFC816D806E806F80611F73ACD8B
:10270000893711F50E943601BC01990F880B990B8E
:102710001DD12AE137E64CE150E477D160931208ED
:1027200070931308809314089093150842E00E9458
:10273000C0088BE392E00E942C0864E670E080E021
:1027400090E00E94F70416CD61E070E08F3441F014
:1027500070E060E08F3699F0893469F470E060E0F1
:1027600084E690E00E94780761E070E084E690E003
:102770000E947D07FFCC893649F461E070E084E671
:1027800090E00E94780770E060E0F0CF833559F464
:1027900061E070E090E080E00E94780770E060E027
:1027A00090E080E0E5CF8635A1F50E94F4078EE643
:1027B00096E00E94A4080E94F407C5EDD6E044E02C
:1027C000C42ED12CE12CF12C85E696E00E942C0839
:1027D000C701B6010E947B088FE396E00E942C0897
:1027E000888599850E94B008E1E0CE1AD108E108F9
:1027F000F1082297FFEFCF16DF06EF06FF0621F75D
:1028000064EF71E080E090E00E94F7048FE396E0CF
:10281000D0CF853709F0AECCC3E0D0E093E2E92E0B
:10282000F12C27ECC22E21E0D22E31E8A32E31E08C
:10283000B32E60E08AE00E94A403CE010197F1F775
:1028400061E08AE00E94A403C7010197F1F760E00C
:102850008AE00E94A403F6016491F5018491E82FB7
:10286000F0E0EE0FFF1FE25AFE4F8591949100E4D5
:1028700012E42FE030E0462F3ED961157105810545
:10288000910529F06F5F7F4F8F4F9F4F9F705ED0F4
:1028900026E933E44BE05DE3B8D020E030E040E0EF
:1028A0005FE3B3D080D2CB010E94B00864E670E051
:1028B00080E090E00E94F704BCCF8091FE079091E9
:1028C000FF07009709F052C308951F93FC01992751
:1028D0008827BC01E89411911032E9F3193010F007
:1028E0001E30C8F31B3249F01D3241F4689405C014
:1028F00012D0610F711D811D911D119110531A305D
:10290000B8F33EF490958095709561957F4F8F4F09
:102910009F4F1F910895592F482F372F262F660F4D
:10292000771F881F991F660F771F881F991F620FD7
:10293000731F841F951F660F771F881F991F0895A7
:1029400040D008F481E00895E89409C097FB3EF474
:1029500090958095709561957F4F8F4F9F4F9923EC
:10296000A9F0F92F96E9BB279395F695879577956A
:102970006795B795F111F8CFFAF4BB0F11F460FF2A
:102980001BC06F5F7F4F8F4F9F4F16C0882311F082
:1029900096E911C0772321F09EE8872F762F05C096
:1029A000662371F096E8862F70E060E02AF09A9531
:1029B000660F771F881FDAF7880F9695879597F926
:1029C0000895990F0008550FAA0BE0E8FEEF1616C0
:1029D0001706E807F907C0F012161306E407F50713
:1029E00098F0621B730B840B950B39F40A2661F087
:1029F000232B242B252B21F408950A2609F4A1402A
:102A0000A6958FEF811D811D08950BD078C069D0E8
:102A100028F06ED018F0952309F05AC05FC0112439
:102A2000A2C07ED0A0F3959FD1F3950F50E0551F23
:102A3000629FF001729FBB27F00DB11D639FAA2713
:102A4000F00DB11DAA1F649F6627B00DA11D661F62
:102A5000829F2227B00DA11D621F739FB00DA11D83
:102A6000621F839FA00D611D221F749F3327A00D3D
:102A7000611D231F849F600D211D822F762F6A2FD9
:102A800011249F5750408AF0E1F088234AF0EE0F5E
:102A9000FF1FBB1F661F771F881F91505040A9F76B
:102AA0009E3F510570F014C05EC05F3FECF3983E4E
:102AB000DCF3869577956795B795F795E7959F5FD2
:102AC000C1F7FE2B880F911D9695879597F908956C
:102AD00097F99F6780E870E060E008959FEF80ECD1
:102AE000089500240A941616170618060906089574
:102AF00000240A9412161306140605060895092EDA
:102B00000394000C11F4882352F0BB0F40F4BF2B48
:102B100011F460FF04C06F5F7F4F8F4F9F4F089588
:102B200057FD9058440F551F59F05F3F71F047957E
:102B3000880F97FB991F61F09F3F79F08795089563
:102B4000121613061406551FF2CF4695F1DF08C082
:102B5000161617061806991FF1CF8695710561059F
:102B600008940895E894BB2766277727CB0197F947
:102B70000895052E97FB16F400940FD057FD05D04D
:102B800014D007FC02D046F408C05095409530950B
:102B900021953F4F4F4F5F4F0895909580957095C9
:102BA00061957F4F8F4F9F4F0895A1E21A2EAA1B68
:102BB000BB1BFD010DC0AA1FBB1FEE1FFF1FA217ED
:102BC000B307E407F50720F0A21BB30BE40BF50BEA
:102BD000661F771F881F991F1A9469F76095709573
:102BE000809590959B01AC01BD01CF010895A29FF6
:102BF000B001B39FC001A39F700D811D1124911DD1
:102C0000B29F700D811D1124911D08955058BB274E
:102C1000AA270ED074CF65DF30F06ADF20F031F4E0
:102C20009F3F11F41EF45ACF0EF4E095E7FB50CF0E
:102C3000E92F76DF80F3BA176207730784079507D9
:102C400018F071F49EF58ECF0EF4E0950B2EBA2F8E
:102C5000A02D0B01B90190010C01CA01A0011124A2
:102C6000FF27591B99F0593F50F4503E68F11A164E
:102C7000F040A22F232F342F4427585FF3CF4695DF
:102C800037952795A795F0405395C9F77EF41F1601
:102C9000BA0B620B730B840BBAF09150A1F0FF0FCB
:102CA000BB1F661F771F881FC2F70EC0BA0F621FB7
:102CB000731F841F48F4879577956795B795F795A7
:102CC0009E3F08F0B3CF9395880F08F09927EE0F39
:102CD0009795879508950CD012CF0ADF40F001DF59
:102CE00030F021F45F3F19F0F3CE51113CCFF6CE16
:102CF00017DF98F39923C9F35523B1F3951B550BAF
:102D0000BB27AA2762177307840738F09F5F5F4FBE
:102D1000220F331F441FAA1FA9F333D00E2E3AF0FF
:102D2000E0E830D091505040E695001CCAF729D019
:102D3000FE2F27D0660F771F881FBB1F2617370768
:102D40004807AB07B0E809F0BB0B802DBF01FF2798
:102D500093585F4F2AF09E3F510568F0B9CE03CFDC
:102D60005F3FECF3983EDCF3869577956795B795D2
:102D7000F7959F5FC9F7880F911D9695879597F9ED
:102D80000895E1E0660F771F881FBB1F6217730766
:102D90008407BA0720F0621B730B840BBA0BEE1F7B
:102DA00088F7E095089504D06894B111DCCE0895B9
:102DB000BFDE88F09F5790F0B92F9927B751A0F048
:102DC000D1F0660F771F881F991F1AF0BA95C9F7BF
:102DD00012C0B13081F0C6DEB1E00895C3CE672FD6
:102DE000782F8827B85F39F0B93FCCF3869577956F
:102DF0006795B395D9F73EF4909580957095619558
:102E00007F4F8F4F9F4F0895DCDD08F48FEF0895BB
:102E1000D8DD880B990B0895EE0FFF1F881F8BBF1D
:102E20000790F691E02D1994E2DEB7FF0895821B1A
:102E3000930B08950F931F93CF93DF9382309105E7
:102E400010F482E090E0E0914708F091480830E00B
:102E500020E0B0E0A0E0309799F42115310509F4A5
:102E60004AC0281B390B24303105D8F58A819B8153
:102E70006115710589F1FB0193838283FE0111C005
:102E8000408151810281138148175907E0F04817AA
:102E9000590799F4109761F012960C9312971396B4
:102EA0001C933296CF01DF91CF911F910F9108951E
:102EB0000093470810934808F4CF2115310551F0CD
:102EC0004217530738F0A901DB019A01BD01DF0168
:102ED000F801C1CFEF01F9CF9093480880934708DC
:102EE000CDCFFE01E20FF31F819391932250310960
:102EF00039832883D7CF2091450830914608232B6A
:102F000041F420911302309114023093460820932B
:102F1000450820911102309112022115310541F42A
:102F20002DB73EB74091150250911602241B350B68
:102F3000E0914508F0914608E217F307A0F42E1B34
:102F40003F0B2817390778F0AC014E5F5F4F24170D
:102F5000350748F04E0F5F1F5093460840934508D1
:102F6000819391939FCFF0E0E0E09CCFCF93DF93EC
:102F70000097E9F0FC01329713821282A091470872
:102F8000B0914808ED0130E020E01097A1F42081D5
:102F90003181820F931F20914508309146082817F0
:102FA000390709F061C0F0934608E0934508DF91C6
:102FB000CF910895EA01CE17DF07E8F54A815B81DA
:102FC0009E0141155105B1F7E901FB83EA8349915F
:102FD0005991C40FD51FEC17FD0761F480819181D1
:102FE0000296840F951FE9019983888382819381DA
:102FF0009B838A83F0E0E0E012968D919C91139779
:103000000097B9F52D913C911197CD010296820F51
:10301000931F20914508309146082817390739F643
:10302000309751F51092480810924708B09346081F
:10303000A0934508BCCFD383C28340815181840FC4
:10304000951FC817D90761F44E5F5F4F888199813A
:10305000480F591F518340838A819B8193838283C8
:103060002115310509F0B0CFF0934808E0934708E7
:103070009ECFFD01DC01C0CF13821282D7CF4F92C9
:103080005F926F927F928F929F92AF92BF92CF92F8
:10309000DF92EF92FF920F931F93CF93DF938C01F8
:1030A000009791F4CB01DF91CF911F910F91FF9089
:1030B000EF90DF90CF90BF90AF909F908F907F90D8
:1030C0006F905F904F90B6CEFC01E60FF71F9C010A
:1030D00022503109E217F30708F4AAC0D901CD91B3
:1030E000DC911197C617D70718F1C530D10570F0DC
:1030F000CE0104978617970748F0C61BD70B229777
:10310000C193D1936D937C93CF0130DFC801DF91E0
:10311000CF911F910F91FF90EF90DF90CF90BF90D4
:10312000AF909F908F907F906F905F904F90089599
:103130005B01AC1ABD0A4C018C0E9D1EA091470884
:10314000B0914808512C412CF12CE12C109731F50D
:1031500080914508909146088815990509F05CC052
:103160004616570608F058C080911102909112023D
:10317000009741F48DB79EB7409115025091160209
:10318000841B950BE817F90708F052C0F093460826
:10319000E0934508F90171836083B8CF8D919C91CC
:1031A000119712966C90129713967C901397A8150E
:1031B000B90559F56C0142E0C40ED11CCA14DB04F8
:1031C00020F1AC014A195B09DA011296159780F0DB
:1031D0006282738251834083D9016D937C93E114A1
:1031E000F10471F0D7011396FC93EE9312978ECFF2
:1031F00022968C0F9D1FF90191838083F301EFCFFD
:10320000F0934808E093470881CF4816590608F420
:103210002C017D01D3019ACFCB010CDE7C010097FC
:1032200039F0AE01B80107D0C801A0DE87016ECF2A
:1032300010E000E06BCFFB01DC0102C001900D92B9
:1032400041505040D8F70895FB01DC0101900D92E8
:103250000020E1F7089511E0C3E0D1E000E005C0EF
:10326000802FFE01D9DD2196011DC430D10780E0F9
:083270000807B1F7F894FFCF45
:1032780027052705270527052705270527052705E6
:1032880001000049088000000000007A02E50112F0
:1032980002C60243022102350200000000E505B91A
:1032A8000513068F05B2059F0590050D0A006E618E
:1032B8006E00696E66006F766600526561647920FB
:1032C800746F2041636365707420436F6D6D616E28
:1032D80064732E2E2E2E2E2E0053454520434F4D1F
:1032E8004D454E545320494E2054484520434F44A1
:1032F8004520464F52204D4F5245204445544149A0
:103308004C532E2E2E2E000A2020202044432052DB
:103318004F4C4C4552204D4F544F5220434F4D4D2A
:10332800414E4453007A3A206C656674206D6F7480
:103338006F7220636C6F636B776973652C206567A8
:103348002E207A31303000783A206C656674206D12
:103358006F746F722063436C6F636B776973652C4E
:103368002065672E2078313030002E3A2072696748
:103378006874206D6F746F7220636C6F636B77690C
:1033880073652C2065672E202C313030002F3A20B1
:103398007269676874206D6F746F722063436C6F15
:1033A800636B776973652065672E202F3130300095
:1033B8000A202020204C494E454152204D4F544F61
:1033C8005220434F4D4D414E4453005B3A206C69A7
:1033D8006E656172204D6F746F7220666F727761CF
:1033E800726428436C6F736529205B353030300078
:1033F8005D3A206C696E656172204D6F746F722042
:103408006261636B77617264284F70656E29205D15
:1034180035303030000A2020202053454E534F527B
:10342800204F555450555420434F4D4D414E445311
:10343800004C3A207072696E74206C6F6164636529
:103448006C6C2072656164696E677320636F6E745B
:10345800696E6F75736C7900793A207072696E7451
:10346800206C6F616463656C6C20766F6C74616747
:10347800652072656164696E6773206F6E636500AD
:10348800563A207072696E7420544F462073656EE8
:10349800736F72732053746174757320636F6E74E5
:1034A800696E6F75736C7900543A20456E636F646A
:1034B8006572203120706572696F64206F75747051
:1034C800757420636F6E74696E6F75736C790075AF
:1034D8003A20556C747261736F6E69632073656E00
:1034E800736F72206F757470757420636F6E746972
:1034F8006E6F75736C79000A20202020555345465D
:10350800554C2046554E4354494F4E20434F4D4D40
:10351800414E4453004920616E6420693A20526F3D
:103528007461746520726F6C6C65727320696E20AB
:103538006F70706F7369746520646972656374690C
:103548006F6E202870757368696E672F70756C6C64
:10355800696E6720706C65617429004F20616E6424
:10356800206F3A20526F7461746520726F6C6C65BD
:10357800727320696E2073616D652064697265637A
:1035880074696F6E20286D6F76696E6720706C6540
:1035980061742900633A20436C6F736520436C6142
:1035A800772077697468207072652D646574657218
:1035B8006D696E656420666F72636520696E204B65
:1035C800672065672E20633200683A204F70656E69
:1035D80020436C617773004C3A204C6F61646365DB
:1035E8006C6C2064617461207072696E74206D6FF8
:1035F80064652077697468206C696E656172206DF6
:103608006F746F7220636F6E74726F6C00503A2023
:103618006175746F6D61746320506C656174204CC2
:103628006F61642C2073746F702C206D6F76652029
:10363800506C65617400533A2053746F7020526F58
:103648006C6C6572204D6F746F7273005374617285
:1036580074696E67207468652070726F6772616D37
:10366800004661696C656420746F2066696E642029
:1036780073656E736F72200020666F756E6421002B
:10368800456E642073746F70203120747269707095
:1036980065642E2E2E2E2E00456E642073746F7076
:1036A800203220747269707065642E2E2E2E2E20A2
:1036B80000456E7465722050574D20666F72206CFD
:1036C800656674206D6F746F723A20636C6F636BFC
:1036D80077697377002053656E736F7220005365A6
:0C36E8006E736F72732052656164000005
:00000001FF
